:020000040800F2
:1000000000500020E5120008851200088B1200083D
:1000100091120008971200089D12000800000000CD
:10002000000000000000000000000000114900086E
:10003000A312000800000000114A0008594A0008F5
:100040002D1300082D1300082D1300082D13000890
:100050002D1300082D1300082D1300082D13000880
:100060002D1300082D1300082D1300082D13000870
:100070002D1300082D1300082D1300082D13000860
:100080002D1300082D1300082D1300082D13000850
:100090002D1300082D1300082D1300082D13000840
:1000A0002D130008B11200082D1300082D130008AD
:1000B0002D1300082D1300082D1300082D13000820
:1000C0002D1300082D1300082D1300082D13000810
:1000D0002D130008C51200082D1300082D13000869
:1000E0002D1300082D1300082D1300080000000038
:1000F0000000000000000000000000000000000000
:0C01000000000000000000005FF808F1A3
:1001100010B5054C237833B9044B13B10448AFF341
:1001200000800123237010BD180000200000000093
:10013000884E000808B5034B1BB103490348AFF3D1
:10014000008008BD000000001C000020884E000850
:1001500081F0004102E000BF83F0004330B54FEA78
:1001600041044FEA430594EA050F08BF90EA020FE5
:100170001FBF54EA000C55EA020C7FEA645C7FEA78
:10018000655C00F0E2804FEA5454D4EB5555B8BF9B
:100190006D420CDD2C4480EA020281EA030382EA0C
:1001A000000083EA010180EA020281EA0303362D9E
:1001B00088BF30BD11F0004F4FEA01314FF4801C71
:1001C0004CEA113102D0404261EB410113F0004F83
:1001D0004FEA03334CEA133302D0524263EB43033A
:1001E00094EA050F00F0A780A4F10104D5F1200ED8
:1001F0000DDB02FA0EFC22FA05F2801841F1000133
:1002000003FA0EF2801843FA05F359410EE0A5F106
:1002100020050EF1200E012A03FA0EFC28BF4CF037
:10022000020C43FA05F3C01851EBE37101F00045ED
:1002300007D54FF0000EDCF1000C7EEB00006EEBFA
:100240000101B1F5801F1BD3B1F5001F0CD3490884
:100250005FEA30004FEA3C0C04F101044FEA4452DB
:1002600012F5800F80F09A80BCF1004F08BF5FEA62
:10027000500C50F1000041EB045141EA050130BD42
:100280005FEA4C0C404141EB0101013C28BFB1F554
:10029000801FE9D291F0000F04BF01460020B1FA9F
:1002A00081F308BF2033A3F10B03B3F120020CDA72
:1002B0000C3208DD02F1140CC2F10C0201FA0CF050
:1002C00021FA02F10CE002F11402D8BFC2F1200CB5
:1002D00001FA02F120FA0CFCDCBF41EA0C0190406B
:1002E000E41AA2BF01EB0451294330BD6FEA0404B4
:1002F0001F3C1CDA0C340EDC04F11404C4F120029F
:1003000020FA04F001FA02F340EA030021FA04F3B0
:1003100045EA030130BDC4F10C04C4F1200220FA07
:1003200002F001FA04F340EA0300294630BD21FA45
:1003300004F0294630BD94F0000F83F4801306BF0B
:1003400081F480110134013D4EE77FEA645C18BFFF
:100350007FEA655C29D094EA050F08BF90EA020F96
:1003600005D054EA000C04BF1946104630BD91EA8E
:10037000030F1EBF0021002030BD5FEA545C05D191
:100380004000494128BF41F0004130BD14F58004D0
:100390003CBF01F5801130BD01F0004545F0FE4144
:1003A00041F470014FF0000030BD7FEA645C1ABF79
:1003B000194610467FEA655C1CBF0B46024650EAB0
:1003C000013406BF52EA033591EA030F41F40021DC
:1003D00030BD00BF90F0000F04BF0021704730B562
:1003E0004FF4806404F132044FF000054FF0000137
:1003F00050E700BF90F0000F04BF0021704730B5F8
:100400004FF4806404F1320410F0004548BF4042CC
:100410004FF000013EE700BF42004FEAE2014FEA21
:1004200031014FEA02701FBF12F07F4393F07F4FFC
:1004300081F06051704732F07F4208BF704793F0FF
:100440007F4F04BF41F40021704730B54FF4607412
:1004500001F0004521F000411CE700BF50EA010215
:1004600008BF704730B54FF000050AE050EA0102BE
:1004700008BF704730B511F0004502D5404261EB2E
:1004800041014FF4806404F132045FEA915C3FF46F
:10049000D8AE4FF003025FEADC0C18BF03325FEA0C
:1004A000DC0C18BF033202EBDC02C2F1200300FABD
:1004B00003FC20FA02F001FA03FE40EA0E0021FAE2
:1004C00002F11444BDE600BF4FF0FF3C06E000BF60
:1004D0004FF0010C02E000BF4FF0010C4DF804CDCD
:1004E0004FEA410C7FEA6C5C4FEA430C18BF7FEA8D
:1004F0006C5C1BD001B050EA410C0CBF52EA430CBB
:1005000091EA030F02BF90EA020F0020704710F13A
:10051000000F91EA030F58BF994208BF90422CBFC9
:10052000D8176FEAE37040F0010070474FEA410CC2
:100530007FEA6C5C02D150EA013C07D14FEA430CE0
:100540007FEA6C5CD6D152EA033CD3D05DF8040B51
:10055000704700BF8446104662468C461946634683
:1005600000E000BF01B5FFF7B7FF002848BF10F15A
:10057000000F01BD4DF808EDFFF7F4FF0CBF01209F
:1005800000205DF808FB00BF4DF808EDFFF7EAFF1B
:1005900034BF012000205DF808FB00BF4DF808EDD6
:1005A000FFF7E0FF94BF012000205DF808FB00BFCB
:1005B0004DF808EDFFF7CEFF94BF012000205DF855
:1005C00008FB00BF4DF808EDFFF7C4FF34BF012062
:1005D00000205DF808FB00BF80F0004002E000BF93
:1005E00081F0004142001FBF5FEA410392EA030F1E
:1005F0007FEA226C7FEA236C6AD04FEA1262D2EB68
:100600001363C1BFD218414048404140B8BF5B426C
:10061000192B88BF704710F0004F40F4000020F005
:100620007F4018BF404211F0004F41F4000121F01B
:100630007F4118BF494292EA030F3FD0A2F1010265
:1006400041FA03FC10EB0C00C3F1200301FA03F1A3
:1006500000F0004302D5494260EB4000B0F5000FC6
:1006600013D3B0F1807F06D340084FEA310102F185
:100670000102FE2A51D2B1F1004F40EBC25008BF37
:1006800020F0010040EA03007047490040EB000001
:10069000013A28BFB0F5000FEDD2B0FA80FCACF102
:1006A000080CB2EB0C0200FA0CF0AABF00EBC2502F
:1006B00052421843BCBFD0401843704792F0000F1D
:1006C00081F4000106BF80F400000132013BB5E770
:1006D0004FEA41037FEA226C18BF7FEA236C21D0E6
:1006E00092EA030F04D092F0000F08BF084670474B
:1006F00090EA010F1CBF0020704712F07F4F04D119
:10070000400028BF40F00040704712F100723CBF2B
:1007100000F50000704700F0004343F0FE4040F455
:10072000000070477FEA226216BF08467FEA236313
:100730000146420206BF5FEA412390EA010F40F4FE
:10074000800070474FF0000304E000BF10F000434A
:1007500048BF40425FEA000C08BF704743F0964331
:1007600001464FF000001CE050EA010208BF70474C
:100770004FF000030AE000BF50EA010208BF7047D3
:1007800011F0004302D5404261EB41015FEA010CE8
:1007900002BF84460146002043F0B64308BFA3F1E0
:1007A0008053A3F50003BCFA8CF2083AA3EBC253C2
:1007B00010DB01FA02FC634400FA02FCC2F12002E1
:1007C000BCF1004F20FA02F243EB020008BF20F018
:1007D0000100704702F1200201FA02FCC2F120027E
:1007E00050EA4C0021FA02F243EB020008BF20EA73
:1007F000DC7070474FF0FF0C1CEAD0521EBF1CEAA1
:10080000D15392EA0C0F93EA0C0F6FD01A4480EA8E
:10081000010C400218BF5FEA41211ED04FF0006377
:1008200043EA501043EA5111A0FB01310CF00040A3
:10083000B1F5000F3EBF490041EAD3715B0040EAC9
:10084000010062F17F02FD2A1DD8B3F1004F40EB99
:10085000C25008BF20F00100704790F0000F0CF06C
:10086000004C08BF49024CEA502040EA51207F3A30
:10087000C2BFD2F1FF0340EAC250704740F400000B
:100880004FF00003013A5DDC12F1190FDCBF00F0FC
:1008900000407047C2F10002410021FA02F1C2F1AA
:1008A000200200FA02FC5FEA310040F1000053EA46
:1008B0004C0308BF20EADC70704792F0000F00F094
:1008C000004C02BF400010F4000F013AF9D040EA9A
:1008D0000C0093F0000F01F0004C02BF490011F42E
:1008E000000F013BF9D041EA0C018FE70CEAD1532C
:1008F00092EA0C0F18BF93EA0C0F0AD030F0004CAC
:1009000018BF31F0004CD8D180EA010000F000405F
:10091000704790F0000F17BF90F0004F084691F01D
:10092000000F91F0004F14D092EA0C0F01D1420257
:100930000FD193EA0C0F03D14B0218BF084608D120
:1009400080EA010000F0004040F0FE4040F400006A
:10095000704740F0FE4040F4400070474FF0FF0CFD
:100960001CEAD0521EBF1CEAD15392EA0C0F93EA44
:100970000C0F69D0A2EB030280EA010C49024FEA96
:10098000402037D04FF0805343EA111143EA10134F
:100990000CF000408B4238BF5B0042F17D024FF407
:1009A000000C8B4224BF5B1A40EA0C00B3EB510FE2
:1009B00024BFA3EB510340EA5C00B3EB910F24BFCB
:1009C000A3EB910340EA9C00B3EBD10F24BFA3EB50
:1009D000D10340EADC001B0118BF5FEA1C1CE0D118
:1009E000FD2A3FF650AF8B4240EBC25008BF20F0CB
:1009F000010070470CF0004C4CEA50207F32C2BF1F
:100A0000D2F1FF0340EAC250704740F400004FF0BB
:100A10000003013A37E792F0000F00F0004C02BFEC
:100A2000400010F4000F013AF9D040EA0C0093F0B6
:100A3000000F01F0004C02BF490011F4000F013B10
:100A4000F9D041EA0C0195E70CEAD15392EA0C0F78
:100A500008D142027FF47DAF93EA0C0F7FF470AFB0
:100A6000084676E793EA0C0F04D14B023FF44CAFF3
:100A700008466EE730F0004C18BF31F0004CCAD188
:100A800030F000427FF45CAF31F000437FF43CAFC4
:100A90005FE700BF90B583B000AF7860114B1B7863
:100AA0001A46114B1B78D31A002BB8BF5B4218466D
:100AB000FFF74CFE04460B4B1B781846FFF742FE2F
:100AC000034619462046FFF749FF03461A46074BDF
:100AD0001A6001220449786802F0C7FB00BF0C3796
:100AE000BD4690BD00000020C0000020C4000020D2
:100AF00080B582B002AF00F01BFC00F043F800F0BC
:100B000027F900F085F800F0F9F8144801F008FC26
:100B10000421124801F0F8FC114B019300230093CB
:100B2000002364220F49104803F05DF80F4B019336
:100B300000230093002364220D490E4803F053F86C
:100B40000D4B019300230093002364220B490C48B2
:100B500003F049F803F0DEFAFEE700BF340000209E
:100B6000C8000020A04E0008D10D0008CC000020D5
:100B7000B04E0008710E0008D0000020C04E0008E2
:100B8000710F000880B590B000AF07F1180328225C
:100B90000021184604F070F93B1D00221A605A60CB
:100BA0009A60DA601A610123BB614FF48033FB6104
:100BB00000233B620123BB6202237B634FF480333B
:100BC000BB634FF48013FB6307F11803184600F072
:100BD0000DFF0346002B01D000F00AFA0F237B60C3
:100BE0000223BB600023FB604FF480633B61002362
:100BF0007B613B1D0121184601F07AF90346002B69
:100C000001D000F0F5F900BF4037BD4680BD0000BF
:100C100080B58EB000AF07F1280300221A605A6039
:100C20009A60DA6007F1200300221A605A603B1DC7
:100C300000221A605A609A60DA601A615A619A61F9
:100C40002D4B4FF080421A602B4B4BF67F325A608F
:100C5000294B00229A60284B6322DA60264B00223F
:100C60001A61254B00229A61234801F009FB0346D3
:100C7000002B01D000F0BCF94FF48053BB6207F1A8
:100C8000280319461C4801F0A7FE0346002B01D09B
:100C900000F0AEF9184801F0DFFB0346002B01D04D
:100CA00000F0A6F900233B6200237B6207F12003DA
:100CB0001946114802F01CFA0346002B01D000F03F
:100CC00097F960237B600023BB600023FB60002357
:100CD0007B613B1D04221946074801F0BFFD034616
:100CE000002B01D000F084F9034800F0D5F900BFD3
:100CF0003837BD4680BD00BF3400002080B500AF4E
:100D0000114B124A1A60104B4FF4E1325A600E4BED
:100D100000229A600C4B0022DA600B4B00221A6111
:100D2000094B0C225A61084B00229A61064B0022A3
:100D3000DA61054802F04CFA0346002B01D000F0BE
:100D400057F900BF80BD00BF7C0000200038014083
:100D500080B586B000AF07F1080300221A605A6020
:100D60009A60DA60174B9B69164A43F0200393613F
:100D7000144B9B6903F020037B607B68114B9B69DC
:100D8000104A43F0040393610E4B9B6903F0040384
:100D90003B603B6800220C210B4800F00FFE0C2347
:100DA000BB600123FB6000233B6102237B6107F1F1
:100DB00008031946044800F07DFC00BF1837BD4603
:100DC00080BD00BF0010024000080140000000008C
:100DD00080B582B000AF78601F4B1B68184603F0E7
:100DE00071F81E4B1B68184603F06CF801221C4971
:100DF0001C4802F03AFA1A4B1B78FF2B05D1174B0F
:100E00001B68184603F00EF9E6E7154B1B78002B1C
:100E100005D1114B1B68184603F004F9DCE7104BB1
:100E20001A78114B1B689A63104B1B681846FFF722
:100E3000F3FA07A3D3E90023FFF7BAFB0346002B1D
:100E400004D0054B1B68184603F0ECF8C4E700BF5C
:100E5000333333333333EB3FCC000020D00000205A
:100E6000C00000207C00002034000020C4000020CE
:100E700090B585B000AF7860374B1B68184603F01B
:100E800021F8364B1B68184603F01CF80122042198
:100E9000334800F093FD334B1B78FB73324B1B78C8
:100EA000BB73BB7B0A3BBB73FB7B0233FB73BA7B1D
:100EB000FB7BD31A002BB8BF5B421846FFF746FCFA
:100EC0000446BB7B1846FFF73DFC03461946204607
:100ED000FFF744FD0346BB60B868FFF79DFA1CA30B
:100EE000D3E90023FFF750FB0346002B1ED0FB7B0A
:100EF0007B730DE01D4B1B6897F90D209A634FF42F
:100F0000FA73184602F0BAFF7B7B023BDBB27B73BD
:100F100097F90D30002BEDDA4FF4FA6002F0AEFFD6
:100F2000002204210E4800F049FD09E00F4B1B6828
:100F3000FA7B9A634FF4FA73184602F09FFFB0E70A
:100F4000054B1B68184603F06DF895E7AFF300807A
:100F50009A9999999999D93FC8000020D00000200A
:100F600000080140C00000200000002034000020E4
:100F700080B582B000AF7860104B1B68184602F055
:100F8000A1FF0F4B1B68184602F09CFF01220821AD
:100F90000C4800F013FD0C4B1B6800229A634FF4C1
:100FA000FA6002F06BFF00220821064800F006FDFF
:100FB000024B1B68184603F035F8DDE7C800002037
:100FC000CC000020000801403400002080B582B031
:100FD00000AF78607B681B68044A934201D100F03F
:100FE000BDF900BF0837BD4680BD00BF002C0140E1
:100FF00080B400AF72B600BFFEE7000080B485B0D9
:1010000000AF154B9B69144A43F001039361124BE7
:101010009B6903F00103BB60BB680F4BDB690E4AA1
:1010200043F08053D3610C4BDB6903F080537B604A
:101030007B680A4B5B68FB60FB6823F0E063FB6046
:10104000FB6843F00073FB60044AFB68536000BF19
:101050001437BD4680BC70470010024000000140BC
:1010600080B485B000AF78607B681B68B3F1804FB7
:101070000BD1084BDB69074A43F00103D361054BF1
:10108000DB6903F00103FB60FB6800BF1437BD465A
:1010900080BC70470010024080B588B000AF786017
:1010A00007F1100300221A605A609A60DA607B68C8
:1010B0001B68B3F1804F17D10D4B9B690C4A43F06D
:1010C000040393610A4B9B6903F00403FB60FB6814
:1010D00002233B6102237B610223FB6107F11003C2
:1010E0001946044800F0E6FA00BF2037BD4680BD2F
:1010F000001002400008014080B588B000AF786061
:1011000007F1100300221A605A609A60DA607B6867
:101110001B68204A934239D11F4B9B691E4A43F4F6
:10112000804393611C4B9B6903F48043FB60FB6825
:10113000194B9B69184A43F004039361164B9B6952
:1011400003F00403BB60BB684FF400733B610223F0
:101150007B610323FB6107F1100319460F4800F080
:10116000A9FA4FF480633B6100237B610023BB61DC
:1011700007F110031946094800F09CFA00220021EB
:10118000252000F0BCF9252000F0D5F900BF20375C
:10119000BD4680BD003801400010024000080140FB
:1011A00080B58CB000AF78600023BB6200237B6207
:1011B000002387F82F302E4B9B692D4A43F40063A0
:1011C00093612B4B9B6903F40063BB60BB6807F121
:1011D0000C0207F110031146184601F003F800F065
:1011E000EDFFB862BB6A234AA2FB03239B0C013BC1
:1011F0007B62214B214A1A601F4B40F2E732DA60D2
:101200001D4A7B6A53601C4B00221A611A4B002254
:101210009A60194B00229A61174801F031F8034691
:1012200087F82F3097F82F30002B1BD1124801F090
:10123000C1F8034687F82F3097F82F30002B11D1D3
:10124000192000F078F97B680F2B08D80022796804
:10125000192000F054F90A4A7B68136002E0012368
:1012600087F82F3097F82F3018463037BD4680BDAD
:101270000010024083DE1B43D4000020002C0140FC
:101280000800002080B400AFFEE780B400AFFEE7A6
:1012900080B400AFFEE780B400AFFEE780B400AFDB
:1012A000FEE780B400AF00BFBD4680BC70470000C1
:1012B00080B500AF024801F0C9F900BF80BD00BF92
:1012C000D400002080B500AF024801F0FFFF00BF4E
:1012D00080BD00BF7C00002080B400AF00BFBD46D1
:1012E00080BC70470C480D490D4A002302E0D458D9
:1012F000C4500433C4188C42F9D30A4A0A4C002360
:1013000001E013600432A242FBD3FFF7E5FF03F0D4
:101310008FFDFFF7EDFB7047000000201800002054
:101320000C4F000818000020442A0020FEE70000AF
:1013300080B500AF084B1B68074A43F010031360E9
:10134000032000F0D1F80F20FFF72AFFFFF756FE29
:101350000023184680BD00BF0020024080B400AFCB
:10136000054B1B781A46054B1B681344034A136050
:1013700000BFBD4680BC70470C0000201C0100204F
:1013800080B400AF024B1B681846BD4680BC704756
:101390001C01002080B485B000AF78607B6803F04A
:1013A0000703FB600C4BDB68BB60BA684FF6FF03BA
:1013B0001340BB60FB681A02BB68134343F0BF6372
:1013C00043F40033BB60044ABB68D36000BF1437EA
:1013D000BD4680BC704700BF00ED00E080B400AFA8
:1013E000044BDB681B0A03F007031846BD4680BCAC
:1013F000704700BF00ED00E080B483B000AF03464B
:10140000FB7197F90730002B0BDBFB7903F01F0210
:10141000064997F907305B09012000FA02F241F80A
:10142000232000BF0C37BD4680BC704700E100E0C0
:1014300080B483B000AF03463960FB7197F9073081
:10144000002B0ADB3B68DAB20C4997F9073012012E
:10145000D2B20B4483F800230AE03B68DAB20849B1
:10146000FB7903F00F03043B1201D2B20B441A764E
:1014700000BF0C37BD4680BC704700BF00E100E0F4
:1014800000ED00E080B489B000AFF860B9607A6028
:10149000FB6803F00703FB61FB69C3F10703042B3F
:1014A00028BF0423BB61FB690433062B02D9FB6907
:1014B000033B00E000237B614FF0FF32BB6902FA7F
:1014C00003F3DA43BB681A407B699A404FF0FF315F
:1014D0007B6901FA03F3D9437B680B401343184639
:1014E0002437BD4680BC704780B582B000AF7860BD
:1014F0007868FFF74FFF00BF0837BD4680BD80B555
:1015000086B000AF0346B9607A60FB7300237B614D
:10151000FFF764FF78617A68B9687869FFF7B2FF0E
:10152000024697F90F3011461846FFF781FF00BFBA
:101530001837BD4680BD80B582B000AF0346FB7151
:1015400097F907301846FFF757FF00BF0837BD4629
:1015500080BD80B485B000AF78600023FB737B68EA
:1015600093F82130022B08D07B6804229A637B68B1
:10157000002283F82020012320E07B681B681A6882
:101580007B681B6822F00E021A607B681B681A6871
:101590007B681B6822F001021A607B681A6C7B680A
:1015A000DB6B012101FA02F25A607B68012283F8A9
:1015B00021207B68002283F82020FB7B184614370B
:1015C000BD4680BC7047000080B584B000AF786035
:1015D0000023FB737B6893F82130022B05D07B68D6
:1015E00004229A630123FB7351E07B681B681A682D
:1015F0007B681B6822F00E021A607B681B681A6801
:101600007B681B6822F001021A607B681B68224A13
:10161000934229D07B681B68204A934222D07B6882
:101620001B681F4A93421AD07B681B681D4A93426D
:1016300012D07B681B681C4A93420AD07B681B68E7
:101640001A4A934202D14FF480130EE04FF0807398
:101650000BE04FF4803308E04FF4805305E04FF483
:10166000807302E0102300E00123114A53607B687D
:10167000012283F821207B68002283F820207B68E8
:101680005B6B002B03D07B685B6B78689847FB7BB8
:1016900018461037BD4680BD080002401C000240BD
:1016A0003000024044000240580002406C000240FA
:1016B0000000024080B48BB000AF78603960002336
:1016C0007B6200233B6269E101227B6A02FA03F339
:1016D000FB613B681B68FA691340BB61BA69FB692F
:1016E0009A4240F058813B685B689A4A93425ED0C8
:1016F000984A934275D8984A934258D0964A934252
:101700006FD8964A934252D0944A934269D8944AE9
:1017100093424CD0924A934263D8924A934246D025
:10172000904A93425DD8122B2AD8122B59D801A285
:1017300052F823F0AF170008891700089B1700081C
:10174000DD170008E3170008E3170008E317000897
:10175000E3170008E3170008E3170008E317000881
:10176000E3170008E3170008E3170008E317000871
:10177000E3170008E317000891170008A5170008F1
:10178000794A934213D02CE03B68DB683B6229E046
:101790003B68DB6804333B6224E03B68DB6808336A
:1017A0003B621FE03B68DB680C333B621AE03B683E
:1017B0009B68002B02D104233B6213E03B689B68CB
:1017C000012B05D108233B627B68FA691A6109E0A5
:1017D00008233B627B68FA695A6103E000233B629D
:1017E00000E000BFBB69FF2B01D87B6801E07B688C
:1017F00004337B61BB69FF2B02D87B6A9B0002E04C
:101800007B6A083B9B003B617B691A680F213B693F
:1018100001FA03F3DB431A40396A3B6901FA03F327
:101820001A437B691A603B685B6803F08053002BA6
:1018300000F0B1804D4B9B694C4A43F0010393612A
:101840004A4B9B6903F00103BB60BB68484A7B6A53
:101850009B08023352F82330FB607B6A03F00303DA
:101860009B000F2202FA03F3DB43FA681340FB608C
:101870007B68404A934213D07B683F4A93420DD025
:101880007B683E4A934207D07B683D4A934201D130
:10189000032306E0042304E0022302E0012300E026
:1018A00000237A6A02F0030292009340FA6813431D
:1018B000FB602F497B6A9B080233FA6841F82320BA
:1018C0003B685B6803F48033002B06D02D4B1A680D
:1018D0002C49BB6913430B6006E02A4B1A68BB69AD
:1018E000DB43284913400B603B685B6803F400331B
:1018F000002B06D0234B5A682249BB6913434B6027
:1019000006E0204B5A68BB69DB431E4913404B601D
:101910003B685B6803F48013002B06D0194B9A6870
:101920001849BB6913438B6006E0164B9A68BB6984
:10193000DB43144913408B603B685B6803F400137E
:10194000002B21D00F4BDA680E49BB691343CB60E3
:1019500021E000BF00003210000031100000221012
:1019600000002110000012100000111000100240B1
:101970000000014000080140000C0140001001403F
:1019800000140140000401400B4BDA68BB69DB43E3
:1019900009491340CB607B6A01337B623B681A685C
:1019A0007B6A22FA03F3002B7FF48EAE00BF00BFE8
:1019B0002C37BD4680BC70470004014080B483B022
:1019C00000AF78600B467B8013467B707B78002BE2
:1019D00003D07A887B681A6103E07B881A047B68ED
:1019E0001A6100BF0C37BD4680BC704780B586B019
:1019F00000AF78607B68002B01D1012372E27B6825
:101A00001B6803F00103002B00F08780924B5B689A
:101A100003F00C03042B0CD08F4B5B6803F00C031A
:101A2000082B12D18C4B5B6803F48033B3F5803FF5
:101A30000BD1894B1B6803F40033002B6CD07B68FF
:101A40005B68002B68D101234CE27B685B68B3F5CF
:101A5000803F06D1804B1B687F4A43F4803313607C
:101A60002EE07B685B68002B0CD17B4B1B687A4AAD
:101A700023F480331360784B1B68774A23F4802368
:101A800013601DE07B685B68B3F5A02F0CD1724B2F
:101A90001B68714A43F4802313606F4B1B686E4AC6
:101AA00043F4803313600BE06B4B1B686A4A23F4EA
:101AB00080331360684B1B68674A23F480231360EC
:101AC0007B685B68002B13D0FFF75AFC386108E095
:101AD000FFF756FC02463B69D31A642B01D9032356
:101AE00000E25D4B1B6803F40033002BF0D014E0E0
:101AF000FFF746FC386108E0FFF742FC02463B690D
:101B0000D31A642B01D90323ECE1534B1B6803F474
:101B10000033002BF0D100E000BF7B681B6803F0AE
:101B20000203002B63D04C4B5B6803F00C03002BCB
:101B30000BD0494B5B6803F00C03082B1CD1464BC0
:101B40005B6803F48033002B16D1434B1B6803F012
:101B50000203002B05D07B681B69012B01D00123F8
:101B6000C0E13D4B1B6823F0F8027B685B69DB003A
:101B7000394913430B603AE07B681B69002B20D086
:101B8000364B01221A60FFF7FBFB386108E0FFF7D4
:101B9000F7FB02463B69D31A022B01D90323A1E1CB
:101BA0002D4B1B6803F00203002BF0D02A4B1B685F
:101BB00023F0F8027B685B69DB00274913430B6065
:101BC00015E0264B00221A60FFF7DAFB386108E0C7
:101BD000FFF7D6FB02463B69D31A022B01D9032338
:101BE00080E11D4B1B6803F00203002BF0D17B68E2
:101BF0001B6803F00803002B3AD07B689B69002B1D
:101C000019D0174B01221A60FFF7BAFB386108E0C0
:101C1000FFF7B6FB02463B69D31A022B01D9032317
:101C200060E10D4B5B6A03F00203002BF0D0012052
:101C300000F008FB1CE00A4B00221A60FFF7A0FB33
:101C400038610FE0FFF79CFB02463B69D31A022B79
:101C500008D9032346E100BF0010024000004242C1
:101C600080044242924B5B6A03F00203002BE9D1ED
:101C70007B681B6803F00403002B00F0A6800023A0
:101C8000FB758B4BDB6903F08053002B0DD1884B28
:101C9000DB69874A43F08053D361854BDB6903F0EE
:101CA0008053BB60BB680123FB75824B1B6803F448
:101CB0008073002B18D17F4B1B687E4A43F48073DE
:101CC0001360FFF75DFB386108E0FFF759FB024640
:101CD0003B69D31A642B01D9032303E1754B1B68BD
:101CE00003F48073002BF0D07B68DB68012B06D1F6
:101CF0006F4B1B6A6E4A43F0010313622DE07B6851
:101D0000DB68002B0CD16A4B1B6A694A23F0010384
:101D10001362674B1B6A664A23F0040313621CE0DC
:101D20007B68DB68052B0CD1614B1B6A604A43F072
:101D3000040313625E4B1B6A5D4A43F001031362A6
:101D40000BE05B4B1B6A5A4A23F001031362584BAA
:101D50001B6A574A23F0040313627B68DB68002B7D
:101D600015D0FFF70DFB38610AE0FFF709FB0246CB
:101D70003B69D31A41F28832934201D90323B1E07F
:101D80004B4B1B6A03F00203002BEED014E0FFF76D
:101D9000F7FA38610AE0FFF7F3FA02463B69D31A13
:101DA00041F28832934201D903239BE0404B1B6AE6
:101DB00003F00203002BEED1FB7D012B05D13C4B40
:101DC000DB693B4A23F08053D3617B68DB69002BDE
:101DD00000F08780364B5B6803F00C03082B61D062
:101DE0007B68DB69022B46D1334B00221A60FFF778
:101DF000C7FA386108E0FFF7C3FA02463B69D31A15
:101E0000022B01D903236DE0294B1B6803F00073FB
:101E1000002BF0D17B681B6AB3F5803F08D1244BBF
:101E20005B6823F400327B689B68214913434B6055
:101E30001F4B5B6823F474127B68196A7B685B6ACA
:101E40000B431B4913434B601B4B01221A60FFF7E6
:101E500097FA386108E0FFF793FA02463B69D31A14
:101E6000022B01D903233DE0114B1B6803F00073E3
:101E7000002BF0D035E0104B00221A60FFF780FAFB
:101E8000386108E0FFF77CFA02463B69D31A022B5F
:101E900001D9032326E0064B1B6803F00073002BD7
:101EA000F0D11EE07B68DB69012B07D1012319E02B
:101EB0000010024000700040600042420B4B5B6823
:101EC000FB60FB6803F480327B681B6A9A4206D190
:101ED000FB6803F470127B685B6A9A4201D00123AD
:101EE00000E0002318461837BD4680BD00100240B0
:101EF00080B584B000AF786039607B68002B01D179
:101F00000123D0E06A4B1B6803F007033A689A424A
:101F100010D9674B1B6823F0070265493B681343E0
:101F20000B60634B1B6803F007033A689A4201D0C9
:101F30000123B8E07B681B6803F00203002B20D06C
:101F40007B681B6803F00403002B05D0594B5B68CA
:101F5000584A43F4E06353607B681B6803F008034E
:101F6000002B05D0534B5B68524A43F460535360D7
:101F7000504B5B6823F0F0027B689B684D4913432C
:101F80004B607B681B6803F00103002B40D07B682B
:101F90005B68012B07D1474B1B6803F40033002B10
:101FA00015D101237FE07B685B68022B07D1414B91
:101FB0001B6803F00073002B09D1012373E03D4B34
:101FC0001B6803F00203002B01D101236BE0394BA6
:101FD0005B6823F003027B685B68364913434B6000
:101FE000FFF7CEF9F8600AE0FFF7CAF90246FB688E
:101FF000D31A41F28832934201D9032353E02D4B87
:102000005B6803F00C027B685B689B009A42EBD133
:10201000274B1B6803F007033A689A4210D2244BFF
:102020001B6823F0070222493B6813430B60204BD7
:102030001B6803F007033A689A4201D0012332E09B
:102040007B681B6803F00403002B08D0194B5B6806
:1020500023F4E0627B68DB68164913434B607B68BE
:102060001B6803F00803002B09D0124B5B6823F4B4
:1020700060527B681B69DB000E4913434B6000F024
:1020800021F802460B4B5B681B0903F00F030A495A
:10209000CB5C22FA03F3094A1360094B1B6818460C
:1020A000FFF77EF8002318461037BD4680BD00BFFD
:1020B0000020024000100240EC4E00080400002006
:1020C0000800002090B48AB000AF294B3C1D0FCB14
:1020D00084E80F0040F201233B800023FB610023D2
:1020E000BB6100237B6200237B6100233B62214BA9
:1020F0005B68FB61FB6903F00C03042B02D0082B27
:1021000003D02BE01C4B3B622BE0FB699B0C03F0E4
:102110000F0328333B4413F8243C7B61FB6903F431
:102120008033002B12D0134B5B685B0C03F0010370
:1021300028333B4413F8283CBB617B690E4A03FB00
:1021400002F2BB69B2FBF3F37B6204E07B690B4AEA
:1021500002FB03F37B627B6A3B6202E0064B3B625D
:1021600000BF3B6A18462837BD4690BC704700BF89
:10217000D44E00080010024000127A0000093D0011
:1021800080B400AF024B1B681846BD4680BC704748
:102190000400002080B500AFFFF7F2FF0246054BB8
:1021A0005B681B0A03F007030349CB5C22FA03F3C5
:1021B000184680BD00100240FC4E000880B500AFFC
:1021C000FFF7DEFF0246054B5B68DB0A03F00703FF
:1021D0000349CB5C22FA03F3184680BD001002408D
:1021E000FC4E000880B483B000AF786039607B6833
:1021F0000F221A60114B5B6803F003027B685A6080
:102200000E4B5B6803F0F0027B689A600B4B5B68D7
:1022100003F4E0627B68DA60084B5B68DB0803F478
:10222000E0627B681A61064B1B6803F007023B689B
:102230001A6000BF0C37BD4680BC704700100240DA
:102240000020024080B485B000AF78600A4B1B6864
:102250000A4AA2FB03235B0A7A6802FB03F3FB60D2
:1022600000BFFB685A1EFA60002BF9D100BF00BF07
:102270001437BD4680BC704704000020D34D621067
:1022800080B582B000AF78607B68002B01D101235C
:1022900041E07B6893F83D30DBB2002B06D17B68D0
:1022A000002283F83C207868FEF7DAFE7B68022281
:1022B00083F83D207B681A687B6804331946104612
:1022C00000F072FC7B68012283F846207B680122C3
:1022D00083F83E207B68012283F83F207B6801223F
:1022E00083F840207B68012283F841207B6801222B
:1022F00083F842207B68012283F843207B68012217
:1023000083F844207B68012283F845207B68012202
:1023100083F83D20002318460837BD4680BD0000E5
:1023200080B485B000AF78607B6893F83D30DBB255
:10233000012B01D0012332E07B68022283F83D208B
:102340007B681B68184A93420ED07B681B68B3F108
:10235000804F09D07B681B68144A934204D07B6885
:102360001B68134A934211D17B681B689B6803F07A
:102370000703FB60FB68062B10D07B681B681A689C
:102380007B681B6842F001021A6007E07B681B68EB
:102390001A687B681B6842F001021A600023184625
:1023A0001437BD4680BC7047002C0140000400403B
:1023B0000008004080B485B000AF78607B6893F877
:1023C0003D30DBB2012B01D001233AE07B680222D1
:1023D00083F83D207B681B68DA687B681B6842F0E5
:1023E0000102DA607B681B68184A93420ED07B6852
:1023F0001B68B3F1804F09D07B681B68144A934275
:1024000004D07B681B68134A934211D17B681B6818
:102410009B6803F00703FB60FB68062B10D07B680A
:102420001B681A687B681B6842F001021A6007E0AB
:102430007B681B681A687B681B6842F001021A609F
:10244000002318461437BD4680BC7047002C01405D
:10245000000400400008004080B582B000AF786002
:102460007B68002B01D1012341E07B6893F83D306C
:10247000DBB2002B06D17B68002283F83C20786811
:1024800000F039F87B68022283F83D207B681A68E7
:102490007B6804331946104600F086FB7B680122F6
:1024A00083F846207B68012283F83E207B68012266
:1024B00083F83F207B68012283F840207B6801225B
:1024C00083F841207B68012283F842207B68012247
:1024D00083F843207B68012283F844207B68012233
:1024E00083F845207B68012283F83D2000231846AD
:1024F0000837BD4680BD80B483B000AF786000BFB0
:102500000C37BD4680BC704780B584B000AF7860A2
:1025100039603B68002B09D17B6893F83E30DBB211
:10252000012B14BF01230023DBB222E03B68042B04
:1025300009D17B6893F83F30DBB2012B14BF012334
:102540000023DBB215E03B68082B09D17B6893F8C8
:102550004030DBB2012B14BF01230023DBB208E0C3
:102560007B6893F84130DBB2012B14BF01230023B9
:10257000DBB2002B01D001235EE03B68002B04D1CD
:102580007B68022283F83E2013E03B68042B04D1D1
:102590007B68022283F83F200BE03B68082B04D1C4
:1025A0007B68022283F8402003E07B68022283F8E4
:1025B00041207B681B6801223968184600F074FDD1
:1025C0007B681B681E4A934207D17B681B685A6C64
:1025D0007B681B6842F400425A647B681B68184A97
:1025E00093420ED07B681B68B3F1804F09D07B68A3
:1025F0001B68144A934204D07B681B68124A9342BA
:1026000011D17B681B689B6803F00703FB60FB68C4
:10261000062B10D07B681B681A687B681B6842F029
:1026200001021A6007E07B681B681A687B681B68F8
:1026300042F001021A60002318461037BD4680BDE3
:10264000002C0140000400400008004080B582B02A
:1026500000AF78607B681B681B6903F00203022BE4
:1026600022D17B681B68DB6803F00203022B1BD1BD
:102670007B681B686FF002021A617B6801221A777F
:102680007B681B689B6903F00303002B03D0786809
:1026900000F06FFA05E0786800F062FA786800F000
:1026A00071FA7B6800221A777B681B681B6903F04C
:1026B0000403042B22D17B681B68DB6803F004034E
:1026C000042B1BD17B681B686FF004021A617B68C6
:1026D00002221A777B681B689B6903F44073002B06
:1026E00003D0786800F045FA05E0786800F038FA21
:1026F000786800F047FA7B6800221A777B681B68CD
:102700001B6903F00803082B22D17B681B68DB6878
:1027100003F00803082B1BD17B681B686FF00802CD
:102720001A617B6804221A777B681B68DB6903F0F7
:102730000303002B03D0786800F01BFA05E07868EB
:1027400000F00EFA786800F01DFA7B6800221A7714
:102750007B681B681B6903F01003102B22D17B6878
:102760001B68DB6803F01003102B1BD17B681B6810
:102770006FF010021A617B6808221A777B681B6869
:10278000DB6903F44073002B03D0786800F0F1F9A3
:1027900005E0786800F0E4F9786800F0F3F97B6808
:1027A00000221A777B681B681B6903F00103012B69
:1027B0000ED17B681B68DB6803F00103012B07D196
:1027C0007B681B686FF001021A617868FEF7FEFBF8
:1027D0007B681B681B6903F08003802B0ED17B682C
:1027E0001B68DB6803F08003802B07D17B681B68C4
:1027F0006FF080021A61786800F0E1FC7B681B686A
:102800001B6903F04003402B0ED17B681B68DB681B
:1028100003F04003402B07D17B681B686FF0400238
:102820001A61786800F0B7F97B681B681B6903F0D0
:102830002003202B0ED17B681B68DB6803F020038C
:10284000202B07D17B681B686FF020021A61786823
:1028500000F0ACFC00BF0837BD4680BD80B584B039
:1028600000AFF860B9607A60FB6893F83C30012BE8
:1028700001D10223ACE0FB68012283F83C207B6895
:102880000C2B00F29F8001A252F823F0C12800080F
:10289000C5290008C5290008C52900080129000824
:1028A000C5290008C5290008C529000843290008D2
:1028B000C5290008C5290008C52900088329000882
:1028C000FB681B68B968184600F0D0F9FB681B6804
:1028D0009A69FB681B6842F008029A61FB681B68F2
:1028E0009A69FB681B6822F004029A61FB681B6806
:1028F0009969BB681A69FB681B680A439A6162E0C0
:10290000FB681B68B968184600F016FAFB681B687C
:102910009A69FB681B6842F400629A61FB681B6855
:102920009A69FB681B6822F480629A61FB681B68E5
:102930009969BB681B691A02FB681B680A439A61A4
:1029400041E0FB681B68B968184600F05FFAFB6855
:102950001B68DA69FB681B6842F00802DA61FB68F1
:102960001B68DA69FB681B6822F00402DA61FB6805
:102970001B68D969BB681A69FB681B680A43DA617E
:1029800021E0FB681B68B968184600F0A9FAFB68EB
:102990001B68DA69FB681B6842F40062DA61FB6855
:1029A0001B68DA69FB681B6822F48062DA61FB68E5
:1029B0001B68D969BB681B691A02FB681B680A435C
:1029C000DA6100E000BFFB68002283F83C200023AE
:1029D00018461037BD4680BD80B584B000AF786022
:1029E00039607B6893F83C30012B01D10223B3E0BE
:1029F0007B68012283F83C207B68022283F83D201B
:102A00007B681B689B68FB60FB6823F07703FB60B7
:102A1000FB6823F47F43FB607B681B68FA689A605D
:102A20003B681B68B3F5005F3ED0B3F5005F00F272
:102A30008780B3F5805F00F08580B3F5805F7FD835
:102A4000702B1AD0702B7BD8602B50D0602B77D88E
:102A5000502B3CD0502B73D8402B58D0402B6FD8E4
:102A6000302B64D0302B6BD8202B60D0202B67D834
:102A7000002B5CD0102B5AD062E07B6818683B6852
:102A800099683B685A683B68DB6800F0EEFA7B683F
:102A90001B689B68FB60FB6843F07703FB607B6807
:102AA0001B68FA689A604EE07B6818683B68996812
:102AB0003B685A683B68DB6800F0D7FA7B681B68A4
:102AC0009A687B681B6842F480429A603BE07B68AE
:102AD00018683B6859683B68DB681A4600F04EFA94
:102AE0007B681B685021184600F0A5FA2BE07B6834
:102AF00018683B6859683B68DB681A4600F06CFA56
:102B00007B681B686021184600F095FA1BE07B6823
:102B100018683B6859683B68DB681A4600F02EFA73
:102B20007B681B684021184600F085FA0BE07B6843
:102B30001A683B681B681946104600F07CFA02E0F0
:102B400000BF00E000BF7B68012283F83D207B6866
:102B5000002283F83C20002318461037BD4680BD74
:102B600080B483B000AF786000BF0C37BD4680BC36
:102B7000704780B483B000AF786000BF0C37BD46AB
:102B800080BC704780B483B000AF786000BF0C3762
:102B9000BD4680BC704780B483B000AF786000BF92
:102BA0000C37BD4680BC704780B485B000AF7860FC
:102BB00039607B681B68FB607B68294A93420BD0B5
:102BC0007B68B3F1804F07D07B68264A934203D0DD
:102BD0007B68254A934208D1FB6823F07003FB60B1
:102BE0003B685B68FA681343FB607B681C4A93424E
:102BF0000BD07B68B3F1804F07D07B68194A9342B2
:102C000003D07B68184A934208D1FB6823F44073D1
:102C1000FB603B68DB68FA681343FB60FB6823F0EA
:102C200080023B685B691343FB607B68FA681A604B
:102C30003B689A687B68DA623B681A687B689A62CC
:102C40007B68074A934203D13B681A697B681A6321
:102C50007B6801225A6100BF1437BD4680BC7047B3
:102C6000002C0140000400400008004080B487B000
:102C700000AF786039607B681B6A23F001027B68D3
:102C80001A627B681B6A7B617B685B683B617B685F
:102C90009B69FB60FB6823F07003FB60FB6823F01B
:102CA0000303FB603B681B68FA681343FB607B69A6
:102CB00023F002037B613B689B687A6913437B6165
:102CC0007B681C4A93420CD17B6923F008037B612B
:102CD0003B68DB687A6913437B617B6923F00403FB
:102CE0007B617B68134A934211D13B6923F4807363
:102CF0003B613B6923F400733B613B685B693A6964
:102D000013433B613B689B693A6913433B617B68B2
:102D10003A695A607B68FA689A613B685A687B68CE
:102D20005A637B687A691A6200BF1C37BD4680BC53
:102D3000704700BF002C014080B487B000AF7860BE
:102D400039607B681B6A23F010027B681A627B681B
:102D50001B6A7B617B685B683B617B689B69FB608E
:102D6000FB6823F4E043FB60FB6823F44073FB60E3
:102D70003B681B681B02FA681343FB607B6923F006
:102D800020037B613B689B681B017A6913437B616D
:102D90007B681D4A93420DD17B6923F080037B61E0
:102DA0003B68DB681B017A6913437B617B6923F015
:102DB00040037B617B68144A934213D13B6923F43F
:102DC00080633B613B6923F400633B613B685B6963
:102DD0009B003A6913433B613B689B699B003A69DE
:102DE00013433B617B683A695A607B68FA689A6171
:102DF0003B685A687B689A637B687A691A6200BF8D
:102E00001C37BD4680BC7047002C014080B487B0A1
:102E100000AF786039607B681B6A23F480727B683E
:102E20001A627B681B6A7B617B685B683B617B68BD
:102E3000DB69FB60FB6823F07003FB60FB6823F039
:102E40000303FB603B681B68FA681343FB607B6904
:102E500023F400737B613B689B681B027A69134310
:102E60007B617B681D4A93420DD17B6923F400632B
:102E70007B613B68DB681B027A6913437B617B697A
:102E800023F480637B617B68144A934213D13B69CE
:102E900023F480533B613B6923F400533B613B685F
:102EA0005B691B013A6913433B613B689B691B01EA
:102EB0003A6913433B617B683A695A607B68FA68F8
:102EC000DA613B685A687B68DA637B687A691A6200
:102ED00000BF1C37BD4680BC704700BF002C0140BE
:102EE00080B487B000AF786039607B681B6A23F4D8
:102EF00080527B681A627B681B6A3B617B685B68F7
:102F00007B617B68DB69FB60FB6823F4E043FB606B
:102F1000FB6823F44073FB603B681B681B02FA6884
:102F20001343FB603B6923F400533B613B689B68A0
:102F30001B033A6913433B617B680F4A934209D1F3
:102F40007B6923F480437B613B685B699B017A6901
:102F500013437B617B687A695A607B68FA68DA613F
:102F60003B685A687B681A647B683A691A6200BFDA
:102F70001C37BD4680BC7047002C014080B487B030
:102F800000AFF860B9607A60FB681B6A7B61FB6820
:102F90001B6A23F00102FB681A62FB689B693B61B4
:102FA0003B6923F0F0033B617B681B013A691343E3
:102FB0003B617B6923F00A037B617A69BB68134339
:102FC0007B61FB683A699A61FB687A691A6200BFA3
:102FD0001C37BD4680BC704780B487B000AFF86036
:102FE000B9607A60FB681B6A23F01002FB681A6202
:102FF000FB689B697B61FB681B6A3B617B6923F40F
:1030000070437B617B681B037A6913437B613B6977
:1030100023F0A0033B61BB681B013A6913433B618A
:10302000FB687A699A61FB683A691A6200BF1C37CB
:10303000BD4680BC704780B485B000AF7860396011
:103040007B689B68FB60FB6823F07003FB603A6859
:10305000FB68134343F00703FB607B68FA689A60E0
:1030600000BF1437BD4680BC704780B487B000AF46
:10307000F860B9607A603B60FB689B687B617B6944
:1030800023F47F437B613B681A027B681A43BB6869
:1030900013437A6913437B61FB687A699A6000BFC6
:1030A0001C37BD4680BC704780B487B000AFF86065
:1030B000B9607A60BB6803F01F03012202FA03F3D0
:1030C0007B61FB681A6A7B69DB431A40FB681A6202
:1030D000FB681A6ABB6803F01F03796801FA03F3FF
:1030E0001A43FB681A6200BF1C37BD4680BC70479C
:1030F00080B485B000AF786039607B6893F83C306D
:10310000012B01D1022346E07B68012283F83C2099
:103110007B68022283F83D207B681B685B68FB604C
:103120007B681B689B68BB60FB6823F07003FB60D7
:103130003B681B68FA681343FB607B681B68FA688E
:103140005A607B681B68164A93420ED07B681B68E6
:10315000B3F1804F09D07B681B68124A934204D0B8
:103160007B681B68104A93420CD1BB6823F0800334
:10317000BB603B685B68BA681343BB607B681B68D5
:10318000BA689A607B68012283F83D207B68002240
:1031900083F83C20002318461437BD4680BC704796
:1031A000002C0140000400400008004080B483B0BF
:1031B00000AF786000BF0C37BD4680BC704780B45C
:1031C00083B000AF786000BF0C37BD4680BC70474D
:1031D00080B582B000AF78607B68002B01D10123FD
:1031E0003FE07B6893F83D30DBB2002B06D17B6873
:1031F000002283F83C207868FDF77EFF7B6824225C
:1032000083F83D207B681B68DA687B681B6822F4C2
:103210000052DA60786800F0A9FB7B681B681A69C5
:103220007B681B6822F490421A617B681B685A69AC
:103230007B681B6822F02A025A617B681B68DA6887
:103240007B681B6842F40052DA607B6800221A64D3
:103250007B68202283F83D207B68202283F83E2073
:10326000002318460837BD4680BD80B584B000AF46
:10327000F860B9601346FB80FB6893F83E30DBB220
:10328000202B1DD1BB68002B02D0FB88002B01D165
:10329000012316E0FB6893F83C30012B01D1022397
:1032A0000FE0FB68012283F83C20FB6800221A63D0
:1032B000FB881A46B968F86800F0CFF9034600E0C9
:1032C000022318461037BD4680BD000080B58AB085
:1032D00000AF78607B681B681B687B627B681B683B
:1032E000DB683B627B681B685B69FB610023BB6139
:1032F00000237B617B6A03F00F03BB61BB69002B7A
:103300000DD17B6A03F02003002B08D03B6A03F049
:103310002003002B03D0786800F07FFA7BE1BB69C3
:10332000002B00F0B180FB6903F00103002B05D1F5
:103330003B6A03F49073002B00F0A6807B6A03F0D5
:103340000103002B0AD03B6A03F48073002B05D0E5
:103350007B681B6C43F001027B681A647B6A03F094
:103360000403002B0AD0FB6903F00103002B05D0F6
:103370007B681B6C43F002027B681A647B6A03F073
:103380000203002B0AD0FB6903F00103002B05D0D8
:103390007B681B6C43F004027B681A647B6A03F051
:1033A0000803002B0FD03B6A03F02003002B04D14D
:1033B000FB6903F00103002B05D07B681B6C43F015
:1033C00008027B681A647B681B6C002B00F01E816E
:1033D0007B6A03F02003002B07D03B6A03F0200335
:1033E000002B02D0786800F018FA7B681B685B69D4
:1033F00003F04003002B14BF01230023DBB27B61E9
:103400007B681B6C03F00803002B02D17B69002B47
:1034100031D0786800F05AF97B681B685B6903F06B
:103420004003002B23D07B681B685A697B681B68AC
:1034300022F040025A617B689B6B002B13D07B68A3
:103440009B6B764A5A637B689B6B1846FEF7BCF809
:103450000346002B16D07B689B6B5B6B7A68926B84
:10346000104698470EE0786800F0E3F80AE07868C4
:1034700000F0DFF806E0786800F0DBF87B680022F7
:103480001A64C3E000BFC1E07B681B6B012B40F0F6
:10349000A1807B6A03F01003002B00F09B803B6A45
:1034A00003F01003002B00F095800023FB607B6885
:1034B0001B681B68FB607B681B685B68FB60FB68C4
:1034C0007B681B685B6903F04003002B4ED07B6870
:1034D0009B6B1B685B683B823B8A002B00F09880EB
:1034E0007B689B8D3A8A9A4280F092807B683A8A08
:1034F000DA857B689B6B9B69202B2BD07B681B68D4
:10350000DA687B681B6822F48072DA607B681B686B
:103510005A697B681B6822F001025A617B681B684C
:103520005A697B681B6822F040025A617B6820223E
:1035300083F83E207B6800221A637B681B68DA6888
:103540007B681B6822F01002DA607B689B6B184670
:10355000FDF7FFFF7B689A8D7B68DB8D9BB2D31AEA
:103560009BB21946786800F06DF851E07B689A8D3F
:103570007B68DB8D9BB2D31A7B827B68DB8D9BB231
:10358000002B47D07B8A002B44D07B681B68DA680D
:103590007B681B6822F49072DA607B681B685A694A
:1035A0007B681B6822F001025A617B68202283F845
:1035B0003E207B6800221A637B681B68DA687B68A0
:1035C0001B6822F01002DA607B8A1946786800F0E6
:1035D00039F81FE07B6A03F08003002B08D03B6AB8
:1035E00003F08003002B03D0786800F0AFF812E0FE
:1035F0007B6A03F04003002B0DD03B6A03F04003CD
:10360000002B08D0786800F0F0F804E000BF02E07A
:1036100000BF00E000BF2837BD4680BD2537000849
:1036200080B483B000AF786000BF0C37BD4680BC6B
:10363000704780B483B000AF786000BF0C37BD46E0
:1036400080BC704780B483B000AF78600B467B804D
:1036500000BF0C37BD4680BC704780B485B000AF5A
:10366000F860B9601346FB80FB68BA689A62FB6831
:10367000FA889A85FB68FA88DA85FB6800221A6462
:10368000FB68222283F83E20FB68002283F83C205E
:10369000FB681B68DA68FB681B6842F48072DA60BA
:1036A000FB681B685A69FB681B6842F001025A619B
:1036B000FB681B68DA68FB681B6842F02002DA606E
:1036C000002318461437BD4680BC704780B483B0D1
:1036D00000AF78607B681B68DA687B681B6822F43F
:1036E0009072DA607B681B685A697B681B6822F0FD
:1036F00001025A617B681B6B012B07D17B681B6839
:10370000DA687B681B6822F01002DA607B6820228E
:1037100083F83E207B6800221A6300BF0C37BD4649
:1037200080BC704780B584B000AF78607B685B6A0E
:10373000FB60FB680022DA85FB680022DA84F86807
:10374000FFF777FF00BF1037BD4680BD80B485B05E
:1037500000AF78607B6893F83D30DBB2212B3ED11F
:103760007B689B68B3F5805F14D17B681B69002B75
:1037700010D17B681B6AFB60FB681B881A467B685C
:103780001B68C2F308025A607B681B6A9A1C7B683C
:103790001A6208E07B681B6A591C7A6811621A7801
:1037A0007B681B685A607B68DB8C9BB2013B9BB2D9
:1037B0007A681946D184002B0FD17B681B68DA68C0
:1037C0007B681B6822F08002DA607B681B68DA681D
:1037D0007B681B6842F04002DA60002300E00223AD
:1037E00018461437BD4680BC704780B582B000AF24
:1037F00078607B681B68DA687B681B6822F040028F
:10380000DA607B68202283F83D207868FFF708FFA4
:10381000002318460837BD4680BD80B586B000AF8E
:1038200078607B6893F83E30DBB2222B40F09980C1
:103830007B689B68B3F5805F17D17B681B69002BA1
:1038400013D100237B617B689B6A3B617B681B68AB
:103850005B689BB2C3F308039AB23B691A807B682A
:103860009B6A9A1C7B689A6226E07B689B6A7B61F4
:1038700000233B617B689B68B3F5805F07D07B6862
:103880009B68002B0AD17B681B69002B06D17B68E3
:103890001B685B68DAB27B691A7008E07B681B689A
:1038A0005B68DBB203F07F03DAB27B691A707B6876
:1038B0009B6A5A1C7B689A627B68DB8D9BB2013BDA
:1038C0009BB27A681946D185002B48D17B681B686A
:1038D000DA687B681B6822F02002DA607B681B686C
:1038E000DA687B681B6822F48072DA607B681B6888
:1038F0005A697B681B6822F001025A617B682022AA
:1039000083F83E207B681B6B012B23D17B68002250
:103910001A637B681B68DA687B681B6822F01002F8
:10392000DA607B681B681B6803F01003102B0AD158
:103930000023FB607B681B681B68FB607B681B685F
:103940005B68FB60FB687B689B8D19467868FFF7B6
:1039500079FE02E07868FDF79DF8002302E000237D
:1039600000E0022318461837BD4680BD80B584B0FC
:1039700000AF78607B681B681B6923F440517B684B
:10398000DA687B681B680A431A617B689A687B68FF
:103990001B691A437B685B691343BB607B681B68C8
:1039A000DB6823F4B05323F00C037A681268B9681B
:1039B0000B43D3607B681B685B6923F440717B68B1
:1039C0009A697B681B680A435A617B681B682C4AAA
:1039D000934203D1FEF7F2FBF86002E0FEF7DAFB58
:1039E000F860FA6813469B0013449A001A447B68F7
:1039F0005B689B00B2FBF3F3224AA2FB03235B0943
:103A00001901FA6813469B0013449A001A447B6814
:103A10005B689B00B2FBF3F21A4BA3FB02035B094A
:103A2000642000FB03F3D31A1B013233154AA2FBB7
:103A300003235B0903F0F0031944FA6813469B0063
:103A400013449A001A447B685B689B00B2FBF3F254
:103A50000C4BA3FB02035B09642000FB03F3D31AA6
:103A60001B013233074AA2FB03235B0903F00F0259
:103A70007B681B680A449A6000BF1037BD4680BD52
:103A8000003801401F85EB5180B483B000AF7860EF
:103A90007B6803F108027B685A607B684FF0FF3255
:103AA0009A607B6803F108027B68DA607B6803F147
:103AB00008027B681A617B6800221A6000BF0C371D
:103AC000BD4680BC704780B483B000AF78607B682F
:103AD00000221A6100BF0C37BD4680BC704780B41D
:103AE00085B000AF786039607B685B68FB603B68DD
:103AF000FA685A60FB689A683B689A60FB689B6842
:103B00003A685A60FB683A689A603B687A681A615A
:103B10007B681B685A1C7B681A6000BF1437BD465F
:103B200080BC704780B485B000AF786039603B6876
:103B30001B68BB60BB68B3F1FF3F03D17B681B69A7
:103B4000FB600CE07B680833FB6002E0FB685B68AD
:103B5000FB60FB685B681B68BA689A42F6D2FB6838
:103B60005A683B685A603B685B683A689A603B6891
:103B7000FA689A60FB683A685A603B687A681A612A
:103B80007B681B685A1C7B681A6000BF1437BD46EF
:103B900080BC704780B485B000AF78607B681B69DB
:103BA000FB607B685B687A6892689A607B689B6858
:103BB0007A6852685A60FB685B687A689A4203D1F7
:103BC0007B689A68FB685A607B6800221A61FB6810
:103BD0001B685A1EFB681A60FB681B68184614377E
:103BE000BD4680BC704780B58CB004AFF860B9604A
:103BF0003B601346FB80FB889B00184600F070FF7B
:103C000078617B69002B0ED04C2000F069FFF861D1
:103C1000FB69002B03D0FB697A691A6305E07869B8
:103C200001F00CF801E00023FB61FB69002B13D0CD
:103C3000FA8800230393FB690293FB6A0193BB6A32
:103C400000933B68B968F86800F00EF8F86900F076
:103C500083F80123BB6102E04FF0FF33BB61BB6916
:103C600018462037BD4680BD80B586B000AFF860ED
:103C7000B9607A603B60BB6A1A6B7B6803F1804372
:103C8000013B9B0013443B613B6923F007033B610D
:103C9000BB68002B1FD000237B6112E0BA687B69F0
:103CA00013441978BA6A7B69134434330A461A708C
:103CB000BA687B6913441B78002B06D07B690133FB
:103CC0007B617B690F2BE9D900E000BFBB6A002252
:103CD00083F8432003E0BB6A002283F834203B6A68
:103CE000042B01D904233B62BB6A3A6ADA62BB6ADD
:103CF00004331846FFF7E7FEBB6A18331846FFF790
:103D0000E2FEBB6ABA6A1A613B6AC3F10502BB6A8A
:103D10009A61BB6ABA6A5A62BB6A443304220021C0
:103D2000184601F0A9F8BB6A483301220021184661
:103D300001F0A2F83A68F968386900F09DFD024682
:103D4000BB6A1A607B6A002B02D07B6ABA6A1A606F
:103D500000BF1837BD4680BD80B584B000AF786025
:103D600000F01CFE3E4B1B6801333D4A13603D4B87
:103D70001B68002B09D13B4A7B681360384B1B68DA
:103D8000012B10D100F060FC0DE0374B1B68002BBD
:103D900009D1344B1B68DA6A7B68DB6A9A4202D825
:103DA000304A7B681360314B1B6801332F4A136024
:103DB0007B68DB6A01229A402D4B1B6813432C4A17
:103DC00013607B68DA6A2B4913469B0013449B00FF
:103DD0000B4404331B68FB607B68FA689A60FB68DD
:103DE0009A687B68DA60FB689B687A6804325A607C
:103DF0007B681A1DFB689A607B68DA6A13469B0031
:103E000013449B001B4A1A447B685A617B68DA6A38
:103E1000184913469B0013449B000B441B68591C14
:103E2000144813469B0013449B000344196000F0A0
:103E3000CFFD0D4B1B68002B0ED00A4B1B68DA6AB6
:103E40007B68DB6A9A4207D20B4B4FF080521A60B4
:103E5000BFF34F8FBFF36F8F00BF1037BD4680BDDC
:103E6000F80100202001002004020020140200209C
:103E7000000200202401002004ED00E080B584B0A1
:103E800000AF78600023FB607B68002B08D000F057
:103E90007DF90021786800F06FFC00F085F9F8608A
:103EA000FB68002B07D1064B4FF080521A60BFF31E
:103EB0004F8FBFF36F8F00BF1037BD4680BD00BF6F
:103EC00004ED00E080B584B000AF786000F066FDDE
:103ED0007B68002B02D13B4B1B6800E07B68BB601A
:103EE000BB6804331846FFF755FE0346002B15D177
:103EF000BB68DA6A344913469B0013449B000B44A9
:103F00001B68002B0AD1BB68DB6A012202FA03F3AB
:103F1000DA432E4B1B6813402C4A1360BB689B6A24
:103F2000002B04D0BB6818331846FFF733FEBB687C
:103F3000043319462648FFF7D2FD0023FB6010E04A
:103F4000BA68FB68134448331B78DBB2012B05D1F8
:103F5000BA68FB681344483300221A70FB680133C7
:103F6000FB60FB68002BEBDD00F032FD194B1B689A
:103F7000002B05D000F012FD00F0E4FB00F028FD5E
:103F8000104B1B68BA689A4218D1124B1B68002B61
:103F900008D0114B4FF080521A60BFF34F8FBFF320
:103FA0006F8F0BE00A4B1A680C4B1B689A4203D1C7
:103FB000044B00221A6001E000F0E8FA00BF10375D
:103FC000BD4680BD20010020240100200002002009
:103FD000E40100200402002004ED00E0F8010020CC
:103FE00080B485B000AF78600023FB607B68BB6065
:103FF000BB685B69094A93420AD1BB689B6A084A5D
:10400000934205D0BB689B6A002B01D10123FB6062
:10401000FB6818461437BD4680BC7047E401002099
:10402000B801002080B584B000AF78607B68FB6089
:10403000344B1B68FA689A425FD0FB68002B5CD057
:1040400000F0ACFCF868FFF7CBFF0346002B52D022
:10405000FB6804331846FFF79DFDFB68DB6A01220D
:104060009A40294B1B681343274A1360FB68DA6A9E
:10407000264913469B0013449B000B4404331B68E2
:10408000BB60FB68BA689A60BB689A68FB68DA60D4
:10409000BB689B68FA6804325A60FB681A1DBB68EB
:1040A0009A60FB68DA6A13469B0013449B00174A28
:1040B0001A44FB685A61FB68DA6A144913469B008C
:1040C00013449B000B441B68591C104813469B006B
:1040D00013449B0003441960FB68DA6A094B1B68B0
:1040E000DB6A9A4207D30A4B4FF080521A60BFF343
:1040F0004F8FBFF36F8F00F06BFC00BF1037BD46D2
:1041000080BD00BF2001002000020020240100200B
:1041100004ED00E080B584B002AF154B019300239D
:1041200000930023802213491348FFF75CFD786059
:104130007B68012B15D14FF0BF0383F31188BFF3C8
:104140006F8FBFF34F8F3B6000BF0C4B4FF0FF32C0
:104150001A600B4B01221A600A4B00221A6000F011
:10416000FDFB094B1B6800BF0837BD4680BD00BF83
:104170001C020020E44E0008194600081802002026
:1041800004020020FC0100201000002080B400AFD9
:10419000044B1B680133034A136000BFBD4680BC5B
:1041A000704700BF2002002080B586B000AF00231A
:1041B0007B6100233B6100F0F1FB684B1B68013B16
:1041C000664A1360654B1B68002B40F0C080644B4F
:1041D0001B68002B00F0BB808AE0624BDB68DB6869
:1041E0007B617B699B6ABB607B69DB697A69126A68
:1041F0009A607B691B6A7A69D2695A60BB685A689F
:104200007B6918339A4203D17B691A6ABB685A608A
:104210007B6900229A62BB681B685A1EBB681A60E1
:104220007B695B697B607B699B687A69D2689A600D
:104230007B69DB687A6992685A607B685A687B6937
:1042400004339A4203D17B69DA687B685A607B69E0
:1042500000225A617B681B685A1E7B681A607B6962
:10426000DB6A01229A40404B1B6813433E4A1360AD
:104270007B69DA6A3D4913469B0013449B000B445B
:1042800004331B683B607B693A689A603B689A68B4
:104290007B69DA603B689B687A6904325A607B69A3
:1042A0001A1D3B689A607B69DA6A13469B001344C7
:1042B0009B002E4A1A447B695A617B69DA6A2B4952
:1042C00013469B0013449B000B441B68591C274852
:1042D00013469B0013449B00034419607B69DA6A10
:1042E000234B1B68DB6A9A4202D3224B01221A60DD
:1042F0001C4B1B68002B7FF470AF7B69002B01D037
:1043000000F020FA1C4B1B68FB60FB68002B10D0F0
:1043100000F036F80346002B02D0164B01221A603B
:10432000FB68013BFB60FB68002BF1D1124B0022C4
:104330001A60104B1B68002B09D001233B610F4B07
:104340004FF080521A60BFF34F8FBFF36F8F00F0B2
:104350003FFB3B6918461837BD4680BD2002002050
:10436000F8010020B80100200002002024010020F4
:10437000200100200C0200200802002004ED00E0D3
:1043800080B588B000AF0023FB61754B1B68002B24
:1043900040F0DC80734B1B680133BB61714ABB6921
:1043A0001360BB69002B10D16F4B1B687B616F4B97
:1043B0001B686D4A13606D4A7B6913606C4B1B6808
:1043C00001336B4A136000F0BDF96A4B1B68BA6990
:1043D0009A42C0F0A680644B1B681B68002B04D176
:1043E000644B4FF0FF321A609BE05F4B1B68DB6849
:1043F000DB683B613B695B68FB60BA69FB689A42BA
:1044000003D25C4AFB6813608BE03B695B69BB606D
:104410003B699B683A69D2689A603B69DB683A6994
:1044200092685A60BB685A683B6904339A4203D168
:104430003B69DA68BB685A603B6900225A61BB6815
:104440001B685A1EBB681A603B699B6A002B1ED012
:104450003B699B6A7B603B69DB693A69126A9A60D7
:104460003B691B6A3A69D2695A607B685A683B6942
:1044700018339A4203D13B691A6A7B685A603B69D8
:1044800000229A627B681B685A1E7B681A603B692F
:10449000DB6A01229A40384B1B681343364A13608B
:1044A0003B69DA6A354913469B0013449B000B4471
:1044B00004331B683B603B693A689A603B689A68C2
:1044C0003B69DA603B689B683A6904325A603B6931
:1044D0001A1D3B689A603B69DA6A13469B001344D5
:1044E0009B00264A1A443B695A613B69DA6A2349B0
:1044F00013469B0013449B000B441B68591C1F4828
:1045000013469B0013449B00034419603B69DA6A1D
:104510001B4B1B68DB6A9A42FFF45DAF0123FB6112
:1045200059E7174B1B68DA6A144913469B0013447A
:104530009B000B441B68012B01D90123FB61114B2C
:104540001B68002B07D00123FB6104E00E4B1B68A6
:1045500001330D4A1360FB6918462037BD4680BD04
:1045600020020020FC010020B0010020B401002046
:104570001002002018020020000200202401002068
:10458000200100200C0200200802002080B485B029
:1045900000AF1C4B1B68002B03D01B4B01221A6081
:1045A0002AE0194B00221A60184B1B687B607B685D
:1045B000B3FA83F3FB70FB78C3F11F03FB60FA6867
:1045C00013469B0013449B00114A1344BB60BB6815
:1045D0005B685A68BB685A60BB685A68BB68083336
:1045E0009A4204D1BB685B685A68BB685A60BB6872
:1045F0005B68DB68074A136000BF1437BD4680BCA8
:10460000704700BF200200200C02002000020020A2
:10461000240100202001002080B582B000AF786026
:1046200000F052F8064B1B68012BF9D9054B4FF0EF
:1046300080521A60BFF34F8FBFF36F8FF0E700BF58
:104640002401002004ED00E080B582B000AF00231B
:104650007B600CE07A6813469B0013449B00124A6F
:1046600013441846FFF710FA7B6801337B607B68C0
:10467000042BEFD90D48FFF707FA0D48FFF704FAAE
:104680000C48FFF701FA0C48FFF7FEF90B48FFF75B
:10469000FBF90B4B054A1A600A4B054A1A6000BF2A
:1046A0000837BD4680BD00BF2401002088010020DE
:1046B0009C010020B8010020CC010020E401002072
:1046C000B0010020B401002080B582B000AF19E035
:1046D00000F064F9104BDB68DB687B607B680433B7
:1046E0001846FFF757FA0D4B1B68013B0B4A136046
:1046F0000B4B1B68013B0A4A136000F069F97868AC
:1047000000F010F8064B1B68002BE1D100BF00BF82
:104710000837BD4680BD00BFCC010020F801002055
:10472000E001002080B582B000AF78607B681B6B31
:10473000184600F083FA786800F080FA00BF083766
:10474000BD4680BD80B400AF094B1B681B68002BC1
:1047500004D1084B4FF0FF321A6005E0044B1B6890
:10476000DB681B68034A136000BFBD4680BC70470E
:10477000B00100201802002080B586B000AF78603C
:104780003960364B1B687B61354B1B680433184618
:10479000FFF700FA0346002B0BD1314B1B68DB6A95
:1047A000012202FA03F3DA432E4B1B6813402D4A11
:1047B00013607B68B3F1FF3F24D13B68002B21D00D
:1047C000294B5B683B61264B1B683A699A60244B16
:1047D0001B683A699268DA60214B1A683B699B68EA
:1047E00004325A601E4B1B681A1D3B699A601C4BB1
:1047F0001B681D4A5A611C4B1B6801331A4A13601F
:1048000000BF26E07A697B681344FB60144B1B6889
:10481000FA685A60FA687B699A4209D2134B1A689F
:104820000F4B1B68043319461046FFF77BF910E065
:104830000F4B1A680A4B1B68043319461046FFF7E2
:1048400071F90C4B1B68FA689A4202D2094AFB685C
:10485000136000BF1837BD4680BD00BFFC010020BB
:104860002001002000020020E4010020B40100200B
:10487000B00100201802002080B485B000AFF860BD
:10488000B9607A60FB68043BFB60FB684FF08072A4
:104890001A60FB68043BFB60BB6823F00102FB6805
:1048A0001A60FB68043BFB60084AFB681A60FB68FF
:1048B000143BFB607A68FB681A60FB68203BFB6076
:1048C000FB6818461437BD4680BC7047D1480008C5
:1048D00080B483B000AF00233B604FF0BF0383F38D
:1048E0001188BFF36F8FBFF34F8F7B6000BF00BF96
:1048F0003B68002BFCD000BF00BF0C37BD4680BC1E
:1049000070470000000000000000000000000000F0
:10491000074B19680868B0E8F00F80F30988BFF307
:104920006F8F4FF0000080F311884EF00D0E70472E
:104930002001002000BF00BF06480068006880F327
:10494000088862B661B6BFF34F8FBFF36F8F00DF89
:1049500000BF000008ED00E000BF00BF80B500AF61
:104960000C4B1B680B4A43F47F031360094B1B6815
:10497000084A43F07F43136000F090F8064B002292
:104980001A60FFF7D9FFFFF701FEFFF7A1FF002331
:10499000184680BD20ED00E01400002080B483B0F4
:1049A00000AF4FF0BF0383F31188BFF36F8FBFF3E6
:1049B0004F8F7B6000BF054B1B680133034A1360B8
:1049C00000BF0C37BD4680BC704700BF14000020FC
:1049D00080B483B000AF0A4B1B68013B084A1360E8
:1049E000074B1B68002B05D100237B607B6883F39A
:1049F000118800BF00BF0C37BD4680BC704700BFA8
:104A00001400002000000000000000000000000072
:104A1000EFF30980BFF36F8F0D4B1A6820E9F00F99
:104A200010602DE908404FF0BF0080F31188FFF7B8
:104A3000ADFD4FF0000080F31188BDE80840196813
:104A40000868B0E8F00F80F30988BFF36F8F7047F4
:104A50002001002000BF00BF80B582B000AF4FF042
:104A6000BF0383F31188BFF36F8FBFF34F8F7B605A
:104A700000BFFFF785FC0346002B03D0064B4FF029
:104A800080521A6000233B603B6883F3118800BFAB
:104A900000BF0837BD4680BD04ED00E080B400AF24
:104AA0000A4B00221A600A4B00221A60094B1B684D
:104AB000094AA2FB03239B09084A013B1360034BED
:104AC00007221A6000BFBD4680BC704710E000E0BE
:104AD00018E000E004000020D34D621014E000E074
:104AE00080B586B000AF78600023FB60FFF74EFB17
:104AF0004C4B1B68002B01D100F0E0F84A4B1A68C0
:104B00007B681340002B40F086807B68002B1ED012
:104B100008227B6813447A689A4218D208227B687C
:104B200013447B607B6803F00703002B11D07B6884
:104B300023F0070308337A689A4205D27B6823F092
:104B4000070308337B6004E000237B6001E000235F
:104B50007B607B68002B5ED0344B1B687A689A427E
:104B600059D8334B3B61324B1B687B6104E07B6956
:104B70003B617B691B687B617B695B687A689A42F1
:104B800003D97B691B68002BF1D1264B1B687A691E
:104B90009A4240D03B691B6808221344FB607B6942
:104BA0001A683B691A607B695A687B68D21A0823C5
:104BB0005B009A420FD97A697B681344BB607B69BA
:104BC0005A687B68D21ABB685A607B697A685A60F7
:104BD000B86800F0D5F8154B1A687B695B68D31A82
:104BE000124A1360114B1A68124B1B689A4203D287
:104BF0000E4B1B680F4A13607B695A680A4B1B688F
:104C00001A437B695A607B6900221A600A4B1B6851
:104C10000133094A1360FFF7C7FAFB6818461837D3
:104C2000BD4680BD2C2A0020402A0020302A0020CA
:104C3000242A0020342A0020382A002080B584B09D
:104C400000AF78607B68FB607B68002B2CD008236A
:104C50005B42FA681344FB60FB68BB60BB685A6840
:104C6000134B1B681340002B1ED0BB681B68002B26
:104C70001AD1BB685A680E4B1B68DB431A40BB68ED
:104C80005A60FFF783FABB685A680A4B1B681344E3
:104C9000084A1360B86800F073F8074B1B680133CB
:104CA000054A1360FFF780FA00BF1037BD4680BD8C
:104CB000402A0020302A00203C2A002080B485B001
:104CC00000AF4FF42053BB60274BFB60FB6803F041
:104CD0000703002B0CD0FB680733FB60FB6823F055
:104CE0000703FB60BA68FB68D31A1F4A1344BB6012
:104CF000FB687B601D4A7B6813601C4B00225A6076
:104D00007B68BA681344FB600822FB689B1AFB604F
:104D1000FB6823F00703FB60FB68154A1360144B24
:104D20001B6800225A60124B1B6800221A607B68C5
:104D30003B603B68FA68D21A3B685A600C4B1A68B1
:104D40003B681A603B685B680A4A13603B685B68B3
:104D5000094A1360094B4FF000421A6000BF143734
:104D6000BD4680BC704700BF24020020242A0020DA
:104D70002C2A0020342A0020302A0020402A00203B
:104D800080B485B000AF7860274BFB6002E0FB6821
:104D90001B68FB60FB681B687A689A42F7D8FB685F
:104DA000BB60FB685B68BA6813447A689A4208D1B2
:104DB000FB685A687B685B681A44FB685A60FB684A
:104DC0007B607B68BB607B685B68BA681A44FB6881
:104DD0001B689A4218D1FB681A68144B1B689A42E8
:104DE0000DD07B685A68FB681B685B681A447B6857
:104DF0005A60FB681B681A687B681A6008E00B4BF6
:104E00001A687B681A6003E0FB681A687B681A609E
:104E1000FA687B689A4202D0FB687A681A6000BF21
:104E20001437BD4680BC7047242A00202C2A00205D
:104E300070B500260C4D0D4C641BA410A64209D180
:104E400000F022F800260A4D0A4C641BA410A6426A
:104E500005D170BD55F8043B98470136EEE755F88B
:104E6000043B98470136F2E7044F0008044F00085E
:104E7000044F0008084F000803460244934200D143
:104E8000704703F8011BF9E7F8B500BFF8BC08BC90
:104E90009E467047F8B500BFF8BC08BC9E467047F8
:104EA0004E6F726D616C2072756E6E696E67000078
:104EB0004272616B6520776974682041425300003B
:104EC0004272616B6520776974686F757420414226
:104ED0005300000002030405060708090A0B0C0D25
:104EE0000E0F101049444C45000000000000000067
:104EF000000000000102030406070809000000008A
:044F000001020304A3
:044F0400350100086B
:044F0800110100088B
:104F0C00640000000024F400100000000100000008
:084F1C0004000000AAAAAAAAE1
:04000005080012E5F8
:00000001FF
